{
  "contractName": "FmhToken",
  "abi": [
    {
      "inputs": [],
      "payable": false,
      "stateMutability": "nonpayable",
      "type": "constructor"
    },
    {
      "constant": true,
      "inputs": [],
      "name": "totalSupply",
      "outputs": [
        {
          "internalType": "uint256",
          "name": "",
          "type": "uint256"
        }
      ],
      "payable": false,
      "stateMutability": "view",
      "type": "function"
    }
  ],
  "bytecode": "0x6080604052348015600f57600080fd5b50620f42406000819055506084806100286000396000f3fe6080604052348015600f57600080fd5b506004361060285760003560e01c806318160ddd14602d575b600080fd5b60336049565b6040518082815260200191505060405180910390f35b6000548156fea265627a7a72315820a6e1b120e750d6e0aa91cba2a93b344657ee38fa2cd470bb396f26e2df6ee14664736f6c63430005100032",
  "source": "pragma solidity ^0.5.0;\n\ncontract FmhToken {\n\n\tuint256 public totalSupply;\n\n\tconstructor() public {\n\t\ttotalSupply = 1000000;\n\t}\n}",
  "sourcePath": "/home/florent/Dev_Block/token_sale/contracts/FmhToken.sol",
  "compiler": {
    "name": "solc",
    "version": "0.5.16+commit.9c3226ce.Emscripten.clang"
  },
  "schemaVersion": "3.0.23",
  "updatedAt": "2021-08-04T19:39:11.974Z",
  "networkType": "ethereum",
  "devdoc": {
    "methods": {}
  },
  "userdoc": {
    "methods": {}
  }
}